{
  "transactions": [
    {
      "hash": "0x7dbfe9ee938e12c1a5fe5e1dcf612652d7a26f53240c7ccba1021c7b876672b5",
      "transactionType": "CALL",
      "contractName": "VRFCoordinatorV2",
      "contractAddress": "0x8103B0A8A00be2DDC778e6e7eaa21791Cd364625",
      "function": "createSubscription():(uint64)",
      "arguments": [],
      "transaction": {
        "type": "0x02",
        "from": "0x3baea9cb41970c17e8c9c56c096457a57c0d784b",
        "to": "0x8103b0a8a00be2ddc778e6e7eaa21791cd364625",
        "gas": "0x1558c",
        "value": "0x0",
        "data": "0xa21a23e4",
        "nonce": "0x1e",
        "accessList": []
      },
      "additionalContracts": [],
      "isFixedGasLimit": false
    },
    {
      "hash": "0x2579dcc5ac964af2acbf1c4d7bbae42b5351d766b264f698bc1e8b60f8178eaa",
      "transactionType": "CALL",
      "contractName": "LinkToken",
      "contractAddress": "0x779877A7B0D9E8603169DdbD7836e478b4624789",
      "function": "transferAndCall(address,uint256,bytes):(bool)",
      "arguments": [
        "0x8103B0A8A00be2DDC778e6e7eaa21791Cd364625",
        "300000000000000000",
        "0x00000000000000000000000000000000000000000000000000000000000016ef"
      ],
      "transaction": {
        "type": "0x02",
        "from": "0x3baea9cb41970c17e8c9c56c096457a57c0d784b",
        "to": "0x779877a7b0d9e8603169ddbd7836e478b4624789",
        "gas": "0x1b43f",
        "value": "0x0",
        "data": "0x4000aea00000000000000000000000008103b0a8a00be2ddc778e6e7eaa21791cd3646250000000000000000000000000000000000000000000000000429d069189e00000000000000000000000000000000000000000000000000000000000000000060000000000000000000000000000000000000000000000000000000000000002000000000000000000000000000000000000000000000000000000000000016ef",
        "nonce": "0x1f",
        "accessList": []
      },
      "additionalContracts": [],
      "isFixedGasLimit": false
    },
    {
      "hash": "0x295e855b97fb35e8b7785372297de907256ab98bacad8aec2ab00f169f2acb10",
      "transactionType": "CREATE",
      "contractName": "Raffle",
      "contractAddress": "0x2722B9065690035563b115fe255007d98BA537e7",
      "function": null,
      "arguments": [
        "10000000000000000",
        "60",
        "0x8103B0A8A00be2DDC778e6e7eaa21791Cd364625",
        "0x474e34a077df58807dbe9c96d3c009b23b3c6d0cce433e59bbf5b34f823bc56c",
        "5871",
        "500000"
      ],
      "transaction": {
        "type": "0x02",
        "from": "0x3baea9cb41970c17e8c9c56c096457a57c0d784b",
        "gas": "0xc81f7",
        "value": "0x0",
        "data": "0x61016034610109576001600160401b03601f610b1638819003918201601f19168401918383118584101761010e5780859260c09460405283398101031261010957815160208301516040840151916001600160a01b038316919082840361010957606086015195608081015195861686036101095760a001519363ffffffff851685036101095760805260ff196000541660005560a05260c05260e05261010092835261012091825261014090815242600155604051916109f193846101258539608051846106be015260a051848181610568015261089c015260c0518481816101bc0152610351015260e05184610465015251836103d5015251826103fd0152518161042e0152f35b600080fd5b634e487b7160e01b600052604160045260246000fdfe60806040908082526004908136101561001757600080fd5b600091823560e01c91826309bc33a71461088557508163115cbaf51461085e5781631fe543e31461063b5781632cfcc539146105475781634585e33b146102ed578163473f1ddc146102c45781636e04ff0d146101445750638b5b9ccc1461007e57600080fd5b346101415780600319360112610141579080519182906002549182855260208095018093600284527f405787fa12a823e0f2b7631cc41b3ba8828b3321ca811111fa75cd3aa3bb5ace90845b81811061012457505050816100e0910382610930565b83519485948186019282875251809352850193925b82811061010457505050500390f35b83516001600160a01b0316855286955093810193928101926001016100f5565b82546001600160a01b0316845292880192600192830192016100ca565b80fd5b838334610141576020806003193601126102c057833567ffffffffffffffff81116102bc57366023820112156102bc57808501359061018282610952565b9061018f86519283610930565b82825236602484830101116102b8579183918160248795018483013701015260015442034281116102a5577f000000000000000000000000000000000000000000000000000000000000000011159360ff835416906002821015610292575047151560025415159186610289575b5085610281575b5084610279575b5092909180519261021b84610914565b600384526203078360ec1b85850152815194859315158452828185015284518093850152815b83811061026257505060608094508284010152601f80199101168101030190f35b808601820151878201606001528694508101610241565b93508461020b565b945085610204565b159550866101fd565b634e487b7160e01b845260219052602483fd5b634e487b7160e01b835260118552602483fd5b8480fd5b8280fd5b5080fd5b8284346102c057816003193601126102c05760035490516001600160a01b039091168152602090f35b839150346102bc57602091826003193601126105435767ffffffffffffffff823581811161053f573660238201121561053f578084013582811161053b57369101602401116102b857848251610342816108e2565b526001544203428111610528577f0000000000000000000000000000000000000000000000000000000000000000111585549060ff8216600281101561051557600254914715158161050c575b81610504575b50806104fb575b6203078360ec1b8887516103af81610914565b600381520152156104d057505060ff19166001908117865582516305d3b1d360e41b81527f0000000000000000000000000000000000000000000000000000000000000000948101949094527f0000000000000000000000000000000000000000000000000000000000000000919091166024840152600360448401527f000000000000000000000000000000000000000000000000000000000000000063ffffffff1660648401526084830152828260a481877f00000000000000000000000000000000000000000000000000000000000000006001600160a01b03165af19081156104c7575061049f578280f35b813d83116104c0575b6104b28183610930565b810103126101415781808280f35b503d6104a8565b513d85823e3d90fd5b845163096d89b560e21b8152478188015260649290916104f49060248401906108bf565b6044820152fd5b5081151561039c565b905089610395565b8215915061038f565b634e487b7160e01b885260218652602488fd5b634e487b7160e01b865260118452602486fd5b8680fd5b8580fd5b8380fd5b8284816003193601126102c05760ff825416600281101561062857610619577f0000000000000000000000000000000000000000000000000000000000000000341061060a5750600254680100000000000000008110156105f7578060016105b2920160025561096e565b81546001600160a01b0360039290921b91821b1916339182901b179091557f819fbd717c9d0b421352c5116a644ca68ba176960c33f406f08d98a27370ca278280a280f35b506041602492634e487b7160e01b835252fd5b51630c10ceb360e11b81529050fd5b5163349289c560e21b81529050fd5b634e487b7160e01b835260218452602483fd5b905082346102bc57806003193601126102bc57602480359067ffffffffffffffff80831161053f573660238401121561053f578285013590811161084c578060051b60209385519261068f86840185610930565b8352848301848193830101913683116108485785879101915b83831061083857506001600160a01b03949250507f0000000000000000000000000000000000000000000000000000000000000000841690503381900361081b5750511561080957516002549283156107f85750906107098388930661096e565b90549060031b1c1691826bffffffffffffffffffffffff60a01b6003541617600355818551610737816108e2565b52816002557f405787fa12a823e0f2b7631cc41b3ba8828b3321ca811111fa75cd3aa3bb5ace908101905b8181106107eb575050808080936002825260ff19825416825542600155807fb112587e57bfa970257f3d54fc52859c6300f6bd7a982462c320fed45c2530ed8380a247905af1903d156107e557843d916107bb83610952565b926107c886519485610930565b83523d92013e5b156107d8578280f35b516374918f6b60e11b8152fd5b506107cf565b9182558691600101610762565b634e487b7160e01b88526012875287fd5b634e487b7160e01b8752603286528287fd5b865163073e64fd60e21b815233818a015280860191909152604490fd5b82358152918101918791016106a8565b8980fd5b50634e487b7160e01b85526041845284fd5b8284346102c057816003193601126102c05761088360ff6020935416915180926108bf565bf35b8390346102c057816003193601126102c0576020907f00000000000000000000000000000000000000000000000000000000000000008152f35b9060028210156108cc5752565b634e487b7160e01b600052602160045260246000fd5b6020810190811067ffffffffffffffff8211176108fe57604052565b634e487b7160e01b600052604160045260246000fd5b6040810190811067ffffffffffffffff8211176108fe57604052565b90601f8019910116810190811067ffffffffffffffff8211176108fe57604052565b67ffffffffffffffff81116108fe57601f01601f191660200190565b6002548110156109a55760026000527f405787fa12a823e0f2b7631cc41b3ba8828b3321ca811111fa75cd3aa3bb5ace0190600090565b634e487b7160e01b600052603260045260246000fdfea264697066735822122075a50cfa889bb3c55388484637b82fd70166bddae636772ea913fd41262edad064736f6c63430008150033000000000000000000000000000000000000000000000000002386f26fc10000000000000000000000000000000000000000000000000000000000000000003c0000000000000000000000008103b0a8a00be2ddc778e6e7eaa21791cd364625474e34a077df58807dbe9c96d3c009b23b3c6d0cce433e59bbf5b34f823bc56c00000000000000000000000000000000000000000000000000000000000016ef000000000000000000000000000000000000000000000000000000000007a120",
        "nonce": "0x20",
        "accessList": []
      },
      "additionalContracts": [],
      "isFixedGasLimit": false
    },
    {
      "hash": "0x45188f4a1a12c7e736f6b762be18192b72f38c8f4cad6750c1609e7d8e4feb86",
      "transactionType": "CALL",
      "contractName": "VRFCoordinatorV2",
      "contractAddress": "0x8103B0A8A00be2DDC778e6e7eaa21791Cd364625",
      "function": "addConsumer(uint64,address)",
      "arguments": [
        "5871",
        "0x2722B9065690035563b115fe255007d98BA537e7"
      ],
      "transaction": {
        "type": "0x02",
        "from": "0x3baea9cb41970c17e8c9c56c096457a57c0d784b",
        "to": "0x8103b0a8a00be2ddc778e6e7eaa21791cd364625",
        "gas": "0x21eb0",
        "value": "0x0",
        "data": "0x7341c10c00000000000000000000000000000000000000000000000000000000000016ef0000000000000000000000002722b9065690035563b115fe255007d98ba537e7",
        "nonce": "0x21",
        "accessList": []
      },
      "additionalContracts": [],
      "isFixedGasLimit": false
    }
  ],
  "receipts": [
    {
      "transactionHash": "0x7dbfe9ee938e12c1a5fe5e1dcf612652d7a26f53240c7ccba1021c7b876672b5",
      "transactionIndex": "0x2",
      "blockHash": "0xb83e8e8aaabb786c9ca481d49e1d165503cd10fc9c70e11e7cdc4a27f2c308ad",
      "blockNumber": "0x43cd4a",
      "from": "0x3BAea9cb41970C17E8C9C56C096457a57C0D784b",
      "to": "0x8103B0A8A00be2DDC778e6e7eaa21791Cd364625",
      "cumulativeGasUsed": "0xcf6b0",
      "gasUsed": "0xe98a",
      "contractAddress": null,
      "logs": [
        {
          "address": "0x8103B0A8A00be2DDC778e6e7eaa21791Cd364625",
          "topics": [
            "0x464722b4166576d3dcbba877b999bc35cf911f4eaf434b7eba68fa113951d0bf",
            "0x00000000000000000000000000000000000000000000000000000000000016ef"
          ],
          "data": "0x0000000000000000000000003baea9cb41970c17e8c9c56c096457a57c0d784b",
          "blockHash": "0xb83e8e8aaabb786c9ca481d49e1d165503cd10fc9c70e11e7cdc4a27f2c308ad",
          "blockNumber": "0x43cd4a",
          "transactionHash": "0x7dbfe9ee938e12c1a5fe5e1dcf612652d7a26f53240c7ccba1021c7b876672b5",
          "transactionIndex": "0x2",
          "logIndex": "0x2",
          "removed": false
        }
      ],
      "status": "0x1",
      "logsBloom": "0x0000000000000000000009000000000000000000000000000000000000000000810000000000000000000000000000000000000000000000000000000000000000000000000000000000000000000000000000000000000000000000000000000000000000000000000020000000000000000000000000000000000000000000000000000c000020000000000000000000000000000000000000000000000000000000000000000000000000000000000000000000000000000000000000000000000000000000200000000000000000000000000000000000000000000000000000000000000000000000000000000000000000000000000000000000000000",
      "type": "0x2",
      "effectiveGasPrice": "0xb2d24ae1"
    },
    {
      "transactionHash": "0x2579dcc5ac964af2acbf1c4d7bbae42b5351d766b264f698bc1e8b60f8178eaa",
      "transactionIndex": "0x4",
      "blockHash": "0xb83e8e8aaabb786c9ca481d49e1d165503cd10fc9c70e11e7cdc4a27f2c308ad",
      "blockNumber": "0x43cd4a",
      "from": "0x3BAea9cb41970C17E8C9C56C096457a57C0D784b",
      "to": "0x779877A7B0D9E8603169DdbD7836e478b4624789",
      "cumulativeGasUsed": "0xf3b11",
      "gasUsed": "0x12a4a",
      "contractAddress": null,
      "logs": [
        {
          "address": "0x779877A7B0D9E8603169DdbD7836e478b4624789",
          "topics": [
            "0xddf252ad1be2c89b69c2b068fc378daa952ba7f163c4a11628f55a4df523b3ef",
            "0x0000000000000000000000003baea9cb41970c17e8c9c56c096457a57c0d784b",
            "0x0000000000000000000000008103b0a8a00be2ddc778e6e7eaa21791cd364625"
          ],
          "data": "0x0000000000000000000000000000000000000000000000000429d069189e0000",
          "blockHash": "0xb83e8e8aaabb786c9ca481d49e1d165503cd10fc9c70e11e7cdc4a27f2c308ad",
          "blockNumber": "0x43cd4a",
          "transactionHash": "0x2579dcc5ac964af2acbf1c4d7bbae42b5351d766b264f698bc1e8b60f8178eaa",
          "transactionIndex": "0x4",
          "logIndex": "0x3",
          "removed": false
        },
        {
          "address": "0x779877A7B0D9E8603169DdbD7836e478b4624789",
          "topics": [
            "0xe19260aff97b920c7df27010903aeb9c8d2be5d310a2c67824cf3f15396e4c16",
            "0x0000000000000000000000003baea9cb41970c17e8c9c56c096457a57c0d784b",
            "0x0000000000000000000000008103b0a8a00be2ddc778e6e7eaa21791cd364625"
          ],
          "data": "0x0000000000000000000000000000000000000000000000000429d069189e00000000000000000000000000000000000000000000000000000000000000000040000000000000000000000000000000000000000000000000000000000000002000000000000000000000000000000000000000000000000000000000000016ef",
          "blockHash": "0xb83e8e8aaabb786c9ca481d49e1d165503cd10fc9c70e11e7cdc4a27f2c308ad",
          "blockNumber": "0x43cd4a",
          "transactionHash": "0x2579dcc5ac964af2acbf1c4d7bbae42b5351d766b264f698bc1e8b60f8178eaa",
          "transactionIndex": "0x4",
          "logIndex": "0x4",
          "removed": false
        },
        {
          "address": "0x8103B0A8A00be2DDC778e6e7eaa21791Cd364625",
          "topics": [
            "0xd39ec07f4e209f627a4c427971473820dc129761ba28de8906bd56f57101d4f8",
            "0x00000000000000000000000000000000000000000000000000000000000016ef"
          ],
          "data": "0x00000000000000000000000000000000000000000000000000000000000000000000000000000000000000000000000000000000000000000429d069189e0000",
          "blockHash": "0xb83e8e8aaabb786c9ca481d49e1d165503cd10fc9c70e11e7cdc4a27f2c308ad",
          "blockNumber": "0x43cd4a",
          "transactionHash": "0x2579dcc5ac964af2acbf1c4d7bbae42b5351d766b264f698bc1e8b60f8178eaa",
          "transactionIndex": "0x4",
          "logIndex": "0x5",
          "removed": false
        }
      ],
      "status": "0x1",
      "logsBloom": "0x0000001400000000000008000000000000000000000000020000000002000000800000000000800000000000000000000000000000000000000000000000000000000000000000000000000800000000000000000000000000002400000000000000000000000000000020000000000000000000400000000000001000000000000000000c000020000000000000800010000020000000000000000000000000000000000000000000000000000000000000000000000000000400000000000002000002000000000000000000000000000000000000000100000000000000000000000000000000000400000000000000000000000000000000000000000000",
      "type": "0x2",
      "effectiveGasPrice": "0xb2d24ae1"
    },
    {
      "transactionHash": "0x295e855b97fb35e8b7785372297de907256ab98bacad8aec2ab00f169f2acb10",
      "transactionIndex": "0x5",
      "blockHash": "0xb83e8e8aaabb786c9ca481d49e1d165503cd10fc9c70e11e7cdc4a27f2c308ad",
      "blockNumber": "0x43cd4a",
      "from": "0x3BAea9cb41970C17E8C9C56C096457a57C0D784b",
      "to": null,
      "cumulativeGasUsed": "0x18dadc",
      "gasUsed": "0x99fcb",
      "contractAddress": "0x2722B9065690035563b115fe255007d98BA537e7",
      "logs": [],
      "status": "0x1",
      "logsBloom": "0x00000000000000000000000000000000000000000000000000000000000000000000000000000000000000000000000000000000000000000000000000000000000000000000000000000000000000000000000000000000000000000000000000000000000000000000000000000000000000000000000000000000000000000000000000000000000000000000000000000000000000000000000000000000000000000000000000000000000000000000000000000000000000000000000000000000000000000000000000000000000000000000000000000000000000000000000000000000000000000000000000000000000000000000000000000000",
      "type": "0x2",
      "effectiveGasPrice": "0xb2d24ae1"
    },
    {
      "transactionHash": "0x45188f4a1a12c7e736f6b762be18192b72f38c8f4cad6750c1609e7d8e4feb86",
      "transactionIndex": "0x6",
      "blockHash": "0xb83e8e8aaabb786c9ca481d49e1d165503cd10fc9c70e11e7cdc4a27f2c308ad",
      "blockNumber": "0x43cd4a",
      "from": "0x3BAea9cb41970C17E8C9C56C096457a57C0D784b",
      "to": "0x8103B0A8A00be2DDC778e6e7eaa21791Cd364625",
      "cumulativeGasUsed": "0x1a4dee",
      "gasUsed": "0x17312",
      "contractAddress": null,
      "logs": [
        {
          "address": "0x8103B0A8A00be2DDC778e6e7eaa21791Cd364625",
          "topics": [
            "0x43dc749a04ac8fb825cbd514f7c0e13f13bc6f2ee66043b76629d51776cff8e0",
            "0x00000000000000000000000000000000000000000000000000000000000016ef"
          ],
          "data": "0x0000000000000000000000002722b9065690035563b115fe255007d98ba537e7",
          "blockHash": "0xb83e8e8aaabb786c9ca481d49e1d165503cd10fc9c70e11e7cdc4a27f2c308ad",
          "blockNumber": "0x43cd4a",
          "transactionHash": "0x45188f4a1a12c7e736f6b762be18192b72f38c8f4cad6750c1609e7d8e4feb86",
          "transactionIndex": "0x6",
          "logIndex": "0x6",
          "removed": false
        }
      ],
      "status": "0x1",
      "logsBloom": "0x0000000000000000000008000000000000000000000000000000000000000000800000000000000000000000000000000000000000000000000000000000000000000000000000000000000000000000000000000000000000000000000000000000000000008000000020000000000000000000000000000000000000000000000000000c000020000000000000000000000000000000000000000000000000000000000000000000000080000000000000000000000000000000000000000000000000000000000000000000000000000000000000000000020000000000000000000000000000000000000000000000000000000000000000000000000000",
      "type": "0x2",
      "effectiveGasPrice": "0xb2d24ae1"
    }
  ],
  "libraries": [],
  "pending": [],
  "returns": {
    "0": {
      "internal_type": "contract Raffle",
      "value": "0x2722B9065690035563b115fe255007d98BA537e7"
    },
    "1": {
      "internal_type": "contract HelperConfig",
      "value": "0xC7f2Cf4845C6db0e1a1e91ED41Bcd0FcC1b0E141"
    }
  },
  "timestamp": 1696683259,
  "chain": 11155111,
  "multi": false,
  "commit": "2d1af76"
}